{
  "contractName": "MooToken",
  "abi": [
    {
      "constant": true,
      "inputs": [],
      "name": "SUCCESS_CODE",
      "outputs": [
        {
          "name": "",
          "type": "uint8"
        }
      ],
      "payable": false,
      "stateMutability": "view",
      "type": "function"
    },
    {
      "constant": false,
      "inputs": [
        {
          "name": "account",
          "type": "address"
        }
      ],
      "name": "removeAdmin",
      "outputs": [],
      "payable": false,
      "stateMutability": "nonpayable",
      "type": "function"
    },
    {
      "constant": true,
      "inputs": [],
      "name": "tokenSummary",
      "outputs": [
        {
          "name": "initialAccount",
          "type": "address"
        },
        {
          "name": "name",
          "type": "string"
        },
        {
          "name": "symbol",
          "type": "string"
        }
      ],
      "payable": false,
      "stateMutability": "view",
      "type": "function"
    },
    {
      "constant": true,
      "inputs": [],
      "name": "NON_WHITELIST_ERROR",
      "outputs": [
        {
          "name": "",
          "type": "string"
        }
      ],
      "payable": false,
      "stateMutability": "view",
      "type": "function"
    },
    {
      "constant": true,
      "inputs": [],
      "name": "NON_WHITELIST_CODE",
      "outputs": [
        {
          "name": "",
          "type": "uint8"
        }
      ],
      "payable": false,
      "stateMutability": "view",
      "type": "function"
    },
    {
      "constant": true,
      "inputs": [
        {
          "name": "account",
          "type": "address"
        }
      ],
      "name": "isAdmin",
      "outputs": [
        {
          "name": "",
          "type": "bool"
        }
      ],
      "payable": false,
      "stateMutability": "view",
      "type": "function"
    },
    {
      "constant": false,
      "inputs": [
        {
          "name": "account",
          "type": "address"
        }
      ],
      "name": "removeWhitelisted",
      "outputs": [],
      "payable": false,
      "stateMutability": "nonpayable",
      "type": "function"
    },
    {
      "constant": false,
      "inputs": [],
      "name": "unpause",
      "outputs": [],
      "payable": false,
      "stateMutability": "nonpayable",
      "type": "function"
    },
    {
      "constant": false,
      "inputs": [
        {
          "name": "account",
          "type": "address"
        }
      ],
      "name": "addAdmin",
      "outputs": [],
      "payable": false,
      "stateMutability": "nonpayable",
      "type": "function"
    },
    {
      "constant": false,
      "inputs": [],
      "name": "pause",
      "outputs": [],
      "payable": false,
      "stateMutability": "nonpayable",
      "type": "function"
    },
    {
      "constant": true,
      "inputs": [],
      "name": "owner",
      "outputs": [
        {
          "name": "",
          "type": "address"
        }
      ],
      "payable": false,
      "stateMutability": "view",
      "type": "function"
    },
    {
      "constant": true,
      "inputs": [
        {
          "name": "account",
          "type": "address"
        }
      ],
      "name": "isWhitelist",
      "outputs": [
        {
          "name": "",
          "type": "bool"
        }
      ],
      "payable": false,
      "stateMutability": "view",
      "type": "function"
    },
    {
      "constant": true,
      "inputs": [],
      "name": "SUCCESS_MESSAGE",
      "outputs": [
        {
          "name": "",
          "type": "string"
        }
      ],
      "payable": false,
      "stateMutability": "view",
      "type": "function"
    },
    {
      "constant": false,
      "inputs": [
        {
          "name": "newOwner",
          "type": "address"
        }
      ],
      "name": "transferOwnership",
      "outputs": [],
      "payable": false,
      "stateMutability": "nonpayable",
      "type": "function"
    },
    {
      "constant": false,
      "inputs": [
        {
          "name": "account",
          "type": "address"
        }
      ],
      "name": "addWhitelist",
      "outputs": [],
      "payable": false,
      "stateMutability": "nonpayable",
      "type": "function"
    },
    {
      "inputs": [
        {
          "name": "_name",
          "type": "string"
        },
        {
          "name": "_symbol",
          "type": "string"
        },
        {
          "name": "initialAccount",
          "type": "address"
        },
        {
          "name": "initialBalance",
          "type": "uint256"
        }
      ],
      "payable": true,
      "stateMutability": "payable",
      "type": "constructor"
    },
    {
      "payable": true,
      "stateMutability": "payable",
      "type": "fallback"
    },
    {
      "anonymous": false,
      "inputs": [
        {
          "indexed": true,
          "name": "from",
          "type": "address"
        },
        {
          "indexed": true,
          "name": "to",
          "type": "address"
        },
        {
          "indexed": false,
          "name": "value",
          "type": "uint256"
        }
      ],
      "name": "Transfer",
      "type": "event"
    },
    {
      "anonymous": false,
      "inputs": [
        {
          "indexed": true,
          "name": "owner",
          "type": "address"
        },
        {
          "indexed": true,
          "name": "spender",
          "type": "address"
        },
        {
          "indexed": false,
          "name": "value",
          "type": "uint256"
        }
      ],
      "name": "Approval",
      "type": "event"
    },
    {
      "anonymous": false,
      "inputs": [
        {
          "indexed": false,
          "name": "from",
          "type": "address"
        },
        {
          "indexed": false,
          "name": "value",
          "type": "uint256"
        }
      ],
      "name": "Burn",
      "type": "event"
    },
    {
      "anonymous": false,
      "inputs": [
        {
          "indexed": false,
          "name": "account",
          "type": "address"
        }
      ],
      "name": "PausedEvt",
      "type": "event"
    },
    {
      "anonymous": false,
      "inputs": [
        {
          "indexed": false,
          "name": "account",
          "type": "address"
        }
      ],
      "name": "UnpausedEvt",
      "type": "event"
    },
    {
      "constant": true,
      "inputs": [
        {
          "name": "to",
          "type": "address"
        }
      ],
      "name": "validateTransferRestricted",
      "outputs": [
        {
          "name": "restrictionCode",
          "type": "uint8"
        }
      ],
      "payable": false,
      "stateMutability": "view",
      "type": "function"
    },
    {
      "constant": true,
      "inputs": [
        {
          "name": "restrictionCode",
          "type": "uint8"
        }
      ],
      "name": "messageHandler",
      "outputs": [
        {
          "name": "message",
          "type": "string"
        }
      ],
      "payable": false,
      "stateMutability": "pure",
      "type": "function"
    },
    {
      "constant": true,
      "inputs": [],
      "name": "totalSupply",
      "outputs": [
        {
          "name": "",
          "type": "uint256"
        }
      ],
      "payable": false,
      "stateMutability": "view",
      "type": "function"
    },
    {
      "constant": true,
      "inputs": [
        {
          "name": "account",
          "type": "address"
        }
      ],
      "name": "balanceOf",
      "outputs": [
        {
          "name": "",
          "type": "uint256"
        }
      ],
      "payable": false,
      "stateMutability": "view",
      "type": "function"
    },
    {
      "constant": false,
      "inputs": [
        {
          "name": "to",
          "type": "address"
        },
        {
          "name": "value",
          "type": "uint256"
        }
      ],
      "name": "transfer",
      "outputs": [
        {
          "name": "success",
          "type": "bool"
        }
      ],
      "payable": false,
      "stateMutability": "nonpayable",
      "type": "function"
    },
    {
      "constant": false,
      "inputs": [
        {
          "name": "from",
          "type": "address"
        },
        {
          "name": "spender",
          "type": "address"
        },
        {
          "name": "value",
          "type": "uint256"
        }
      ],
      "name": "transferFrom",
      "outputs": [
        {
          "name": "",
          "type": "bool"
        }
      ],
      "payable": false,
      "stateMutability": "nonpayable",
      "type": "function"
    },
    {
      "constant": true,
      "inputs": [
        {
          "name": "owner",
          "type": "address"
        },
        {
          "name": "spender",
          "type": "address"
        }
      ],
      "name": "allowance",
      "outputs": [
        {
          "name": "",
          "type": "uint256"
        }
      ],
      "payable": false,
      "stateMutability": "view",
      "type": "function"
    },
    {
      "constant": false,
      "inputs": [
        {
          "name": "spender",
          "type": "address"
        },
        {
          "name": "value",
          "type": "uint256"
        }
      ],
      "name": "approve",
      "outputs": [
        {
          "name": "",
          "type": "bool"
        }
      ],
      "payable": false,
      "stateMutability": "nonpayable",
      "type": "function"
    },
    {
      "constant": false,
      "inputs": [
        {
          "name": "value",
          "type": "uint256"
        }
      ],
      "name": "burn",
      "outputs": [
        {
          "name": "success",
          "type": "bool"
        }
      ],
      "payable": false,
      "stateMutability": "nonpayable",
      "type": "function"
    },
    {
      "constant": false,
      "inputs": [
        {
          "name": "account",
          "type": "address"
        },
        {
          "name": "value",
          "type": "uint256"
        }
      ],
      "name": "mint",
      "outputs": [
        {
          "name": "",
          "type": "bool"
        }
      ],
      "payable": false,
      "stateMutability": "nonpayable",
      "type": "function"
    }
  ],
  "bytecode": "0x60806040526040516200287938038062002879833981018060405260808110156200002957600080fd5b8101908080516401000000008111156200004257600080fd5b828101905060208101848111156200005957600080fd5b81518560018202830111640100000000821117156200007757600080fd5b505092919060200180516401000000008111156200009457600080fd5b82810190506020810184811115620000ab57600080fd5b8151856001820283011164010000000082111715620000c957600080fd5b50509291906020018051906020019092919080519060200190929190505050336000806101000a81548173ffffffffffffffffffffffffffffffffffffffff021916908373ffffffffffffffffffffffffffffffffffffffff16021790555060018060003373ffffffffffffffffffffffffffffffffffffffff1673ffffffffffffffffffffffffffffffffffffffff16815260200190815260200160002060006101000a81548160ff0219169083151502179055506000600360006101000a81548160ff021916908315150217905550620001ab82620002bb60201b60201c565b80600760008473ffffffffffffffffffffffffffffffffffffffff1673ffffffffffffffffffffffffffffffffffffffff168152602001908152602001600020819055508060098190555060405180606001604052808373ffffffffffffffffffffffffffffffffffffffff16815260200185815260200184815250600460008201518160000160006101000a81548173ffffffffffffffffffffffffffffffffffffffff021916908373ffffffffffffffffffffffffffffffffffffffff16021790555060208201518160010190805190602001906200028e92919062000406565b506040820151816002019080519060200190620002ad92919062000406565b5090505050505050620004b5565b60011515600160003373ffffffffffffffffffffffffffffffffffffffff1673ffffffffffffffffffffffffffffffffffffffff16815260200190815260200160002060009054906101000a900460ff161515146200031957600080fd5b600073ffffffffffffffffffffffffffffffffffffffff168173ffffffffffffffffffffffffffffffffffffffff1614158015620003a15750600260008273ffffffffffffffffffffffffffffffffffffffff1673ffffffffffffffffffffffffffffffffffffffff16815260200190815260200160002060009054906101000a900460ff16155b620003ab57600080fd5b6001600260008373ffffffffffffffffffffffffffffffffffffffff1673ffffffffffffffffffffffffffffffffffffffff16815260200190815260200160002060006101000a81548160ff02191690831515021790555050565b828054600181600116156101000203166002900490600052602060002090601f016020900481019282601f106200044957805160ff19168380011785556200047a565b828001600101855582156200047a579182015b82811115620004795782518255916020019190600101906200045c565b5b5090506200048991906200048d565b5090565b620004b291905b80821115620004ae57600081600090555060010162000494565b5090565b90565b6123b480620004c56000396000f3fe6080604052600436106101665760003560e01c806342966c68116100d15780639033cb281161008a578063dd62ed3e11610064578063dd62ed3e146109c7578063e7984d1714610a4c578063f2fde38b14610adc578063f80f5dd514610b2d57610166565b80639033cb2814610880578063a9059cbb146108eb578063c683630d1461095e57610166565b806342966c681461065257806343f432d5146106a5578063704802751461075c57806370a08231146107ad5780638456cb59146108125780638da5cb5b1461082957610166565b806323b872dd1161012357806323b872dd1461044a5780632431691c146104dd57806324d7806c1461050e578063291d9549146105775780633f4ba83a146105c857806340c10f19146105df57610166565b8063095ea7b31461016b5780630e969a05146101de5780631785f53c1461020f57806318160ddd146102605780631fc377841461028b57806322baf96d146103ba575b600080fd5b34801561017757600080fd5b506101c46004803603604081101561018e57600080fd5b81019080803573ffffffffffffffffffffffffffffffffffffffff16906020019092919080359060200190929190505050610b7e565b604051808215151515815260200191505060405180910390f35b3480156101ea57600080fd5b506101f3610ca9565b604051808260ff1660ff16815260200191505060405180910390f35b34801561021b57600080fd5b5061025e6004803603602081101561023257600080fd5b81019080803573ffffffffffffffffffffffffffffffffffffffff169060200190929190505050610cae565b005b34801561026c57600080fd5b50610275610df1565b6040518082815260200191505060405180910390f35b34801561029757600080fd5b506102a0610dfb565b604051808473ffffffffffffffffffffffffffffffffffffffff1673ffffffffffffffffffffffffffffffffffffffff1681526020018060200180602001838103835285818151815260200191508051906020019080838360005b838110156103165780820151818401526020810190506102fb565b50505050905090810190601f1680156103435780820380516001836020036101000a031916815260200191505b50838103825284818151815260200191508051906020019080838360005b8381101561037c578082015181840152602081019050610361565b50505050905090810190601f1680156103a95780820380516001836020036101000a031916815260200191505b509550505050505060405180910390f35b3480156103c657600080fd5b506103cf610f63565b6040518080602001828103825283818151815260200191508051906020019080838360005b8381101561040f5780820151818401526020810190506103f4565b50505050905090810190601f16801561043c5780820380516001836020036101000a031916815260200191505b509250505060405180910390f35b34801561045657600080fd5b506104c36004803603606081101561046d57600080fd5b81019080803573ffffffffffffffffffffffffffffffffffffffff169060200190929190803573ffffffffffffffffffffffffffffffffffffffff16906020019092919080359060200190929190505050610f7f565b604051808215151515815260200191505060405180910390f35b3480156104e957600080fd5b506104f26113ef565b604051808260ff1660ff16815260200191505060405180910390f35b34801561051a57600080fd5b5061055d6004803603602081101561053157600080fd5b81019080803573ffffffffffffffffffffffffffffffffffffffff1690602001909291905050506113f4565b604051808215151515815260200191505060405180910390f35b34801561058357600080fd5b506105c66004803603602081101561059a57600080fd5b81019080803573ffffffffffffffffffffffffffffffffffffffff1690602001909291905050506114a3565b005b3480156105d457600080fd5b506105dd6115ea565b005b3480156105eb57600080fd5b506106386004803603604081101561060257600080fd5b81019080803573ffffffffffffffffffffffffffffffffffffffff169060200190929190803590602001909291905050506116e0565b604051808215151515815260200191505060405180910390f35b34801561065e57600080fd5b5061068b6004803603602081101561067557600080fd5b810190808035906020019092919050505061189d565b604051808215151515815260200191505060405180910390f35b3480156106b157600080fd5b506106e1600480360360208110156106c857600080fd5b81019080803560ff169060200190929190505050611a33565b6040518080602001828103825283818151815260200191508051906020019080838360005b83811015610721578082015181840152602081019050610706565b50505050905090810190601f16801561074e5780820380516001836020036101000a031916815260200191505b509250505060405180910390f35b34801561076857600080fd5b506107ab6004803603602081101561077f57600080fd5b81019080803573ffffffffffffffffffffffffffffffffffffffff169060200190929190505050611ab2565b005b3480156107b957600080fd5b506107fc600480360360208110156107d057600080fd5b81019080803573ffffffffffffffffffffffffffffffffffffffff169060200190929190505050611bf5565b6040518082815260200191505060405180910390f35b34801561081e57600080fd5b50610827611c3e565b005b34801561083557600080fd5b5061083e611d35565b604051808273ffffffffffffffffffffffffffffffffffffffff1673ffffffffffffffffffffffffffffffffffffffff16815260200191505060405180910390f35b34801561088c57600080fd5b506108cf600480360360208110156108a357600080fd5b81019080803573ffffffffffffffffffffffffffffffffffffffff169060200190929190505050611d5a565b604051808260ff1660ff16815260200191505060405180910390f35b3480156108f757600080fd5b506109446004803603604081101561090e57600080fd5b81019080803573ffffffffffffffffffffffffffffffffffffffff16906020019092919080359060200190929190505050611d7c565b604051808215151515815260200191505060405180910390f35b34801561096a57600080fd5b506109ad6004803603602081101561098157600080fd5b81019080803573ffffffffffffffffffffffffffffffffffffffff169060200190929190505050612063565b604051808215151515815260200191505060405180910390f35b3480156109d357600080fd5b50610a36600480360360408110156109ea57600080fd5b81019080803573ffffffffffffffffffffffffffffffffffffffff169060200190929190803573ffffffffffffffffffffffffffffffffffffffff1690602001909291905050506120b9565b6040518082815260200191505060405180910390f35b348015610a5857600080fd5b50610a61612140565b6040518080602001828103825283818151815260200191508051906020019080838360005b83811015610aa1578082015181840152602081019050610a86565b50505050905090810190601f168015610ace5780820380516001836020036101000a031916815260200191505b509250505060405180910390f35b348015610ae857600080fd5b50610b2b60048036036020811015610aff57600080fd5b81019080803573ffffffffffffffffffffffffffffffffffffffff169060200190929190505050612179565b005b348015610b3957600080fd5b50610b7c60048036036020811015610b5057600080fd5b81019080803573ffffffffffffffffffffffffffffffffffffffff169060200190929190505050612215565b005b60008073ffffffffffffffffffffffffffffffffffffffff168373ffffffffffffffffffffffffffffffffffffffff161415610bb957600080fd5b81600860003373ffffffffffffffffffffffffffffffffffffffff1673ffffffffffffffffffffffffffffffffffffffff16815260200190815260200160002060008573ffffffffffffffffffffffffffffffffffffffff1673ffffffffffffffffffffffffffffffffffffffff168152602001908152602001600020819055508273ffffffffffffffffffffffffffffffffffffffff163373ffffffffffffffffffffffffffffffffffffffff167f8c5be1e5ebec7d5bd14f71427d1e84f3dd0314c0f7b2291e5b200ac8c7c3b925846040518082815260200191505060405180910390a36001905092915050565b600081565b6000809054906101000a900473ffffffffffffffffffffffffffffffffffffffff1673ffffffffffffffffffffffffffffffffffffffff163373ffffffffffffffffffffffffffffffffffffffff1614610d0757600080fd5b600073ffffffffffffffffffffffffffffffffffffffff168173ffffffffffffffffffffffffffffffffffffffff1614158015610d8e5750600160008273ffffffffffffffffffffffffffffffffffffffff1673ffffffffffffffffffffffffffffffffffffffff16815260200190815260200160002060009054906101000a900460ff16155b610d9757600080fd5b60018060008373ffffffffffffffffffffffffffffffffffffffff1673ffffffffffffffffffffffffffffffffffffffff16815260200190815260200160002060006101000a81548160ff02191690831515021790555050565b6000600954905090565b60048060000160009054906101000a900473ffffffffffffffffffffffffffffffffffffffff1690806001018054600181600116156101000203166002900480601f016020809104026020016040519081016040528092919081815260200182805460018160011615610100020316600290048015610ebb5780601f10610e9057610100808354040283529160200191610ebb565b820191906000526020600020905b815481529060010190602001808311610e9e57829003601f168201915b505050505090806002018054600181600116156101000203166002900480601f016020809104026020016040519081016040528092919081815260200182805460018160011615610100020316600290048015610f595780601f10610f2e57610100808354040283529160200191610f59565b820191906000526020600020905b815481529060010190602001808311610f3c57829003601f168201915b5050505050905083565b6040518060600160405280602b815260200161235e602b913981565b60008383836000610f8f83611d5a565b9050600060ff168160ff1614610fa482611a33565b9061104a576040517f08c379a00000000000000000000000000000000000000000000000000000000081526004018080602001828103825283818151815260200191508051906020019080838360005b8381101561100f578082015181840152602081019050610ff4565b50505050905090810190601f16801561103c5780820380516001836020036101000a031916815260200191505b509250505060405180910390fd5b50600360009054906101000a900460ff161561106557600080fd5b600073ffffffffffffffffffffffffffffffffffffffff168773ffffffffffffffffffffffffffffffffffffffff16141580156110e15750600760008973ffffffffffffffffffffffffffffffffffffffff1673ffffffffffffffffffffffffffffffffffffffff168152602001908152602001600020548611155b80156111695750600860008973ffffffffffffffffffffffffffffffffffffffff1673ffffffffffffffffffffffffffffffffffffffff16815260200190815260200160002060003373ffffffffffffffffffffffffffffffffffffffff1673ffffffffffffffffffffffffffffffffffffffff168152602001908152602001600020548611155b61117257600080fd5b85600760008a73ffffffffffffffffffffffffffffffffffffffff1673ffffffffffffffffffffffffffffffffffffffff1681526020019081526020016000205403600760008a73ffffffffffffffffffffffffffffffffffffffff1673ffffffffffffffffffffffffffffffffffffffff1681526020019081526020016000208190555085600760008973ffffffffffffffffffffffffffffffffffffffff1673ffffffffffffffffffffffffffffffffffffffff1681526020019081526020016000205401600760008973ffffffffffffffffffffffffffffffffffffffff1673ffffffffffffffffffffffffffffffffffffffff1681526020019081526020016000208190555085600860008a73ffffffffffffffffffffffffffffffffffffffff1673ffffffffffffffffffffffffffffffffffffffff16815260200190815260200160002060003373ffffffffffffffffffffffffffffffffffffffff1673ffffffffffffffffffffffffffffffffffffffff1681526020019081526020016000205403600860008a73ffffffffffffffffffffffffffffffffffffffff1673ffffffffffffffffffffffffffffffffffffffff16815260200190815260200160002060003373ffffffffffffffffffffffffffffffffffffffff1673ffffffffffffffffffffffffffffffffffffffff168152602001908152602001600020819055508673ffffffffffffffffffffffffffffffffffffffff168873ffffffffffffffffffffffffffffffffffffffff167fddf252ad1be2c89b69c2b068fc378daa952ba7f163c4a11628f55a4df523b3ef886040518082815260200191505060405180910390a360019450505050509392505050565b600181565b60008060009054906101000a900473ffffffffffffffffffffffffffffffffffffffff1673ffffffffffffffffffffffffffffffffffffffff163373ffffffffffffffffffffffffffffffffffffffff161461144f57600080fd5b600160008373ffffffffffffffffffffffffffffffffffffffff1673ffffffffffffffffffffffffffffffffffffffff16815260200190815260200160002060009054906101000a900460ff169050919050565b60011515600160003373ffffffffffffffffffffffffffffffffffffffff1673ffffffffffffffffffffffffffffffffffffffff16815260200190815260200160002060009054906101000a900460ff1615151461150057600080fd5b600073ffffffffffffffffffffffffffffffffffffffff168173ffffffffffffffffffffffffffffffffffffffff16141580156115865750600260008273ffffffffffffffffffffffffffffffffffffffff1673ffffffffffffffffffffffffffffffffffffffff16815260200190815260200160002060009054906101000a900460ff165b61158f57600080fd5b6000600260008373ffffffffffffffffffffffffffffffffffffffff1673ffffffffffffffffffffffffffffffffffffffff16815260200190815260200160002060006101000a81548160ff02191690831515021790555050565b60011515600160003373ffffffffffffffffffffffffffffffffffffffff1673ffffffffffffffffffffffffffffffffffffffff16815260200190815260200160002060009054906101000a900460ff1615151461164757600080fd5b600360009054906101000a900460ff1661166057600080fd5b6000600360006101000a81548160ff0219169083151502179055507f5b458f30661b64d53169f3d852fe57bbaf55cb8f5615af19114f2c9b7bb52c0e33604051808273ffffffffffffffffffffffffffffffffffffffff1673ffffffffffffffffffffffffffffffffffffffff16815260200191505060405180910390a1565b6000600360009054906101000a900460ff16156116fc57600080fd5b60011515600160003373ffffffffffffffffffffffffffffffffffffffff1673ffffffffffffffffffffffffffffffffffffffff16815260200190815260200160002060009054906101000a900460ff1615151461175957600080fd5b600073ffffffffffffffffffffffffffffffffffffffff168373ffffffffffffffffffffffffffffffffffffffff16141561179357600080fd5b81600960008282540192505081905560098190555081600760008573ffffffffffffffffffffffffffffffffffffffff1673ffffffffffffffffffffffffffffffffffffffff1681526020019081526020016000205401600760008573ffffffffffffffffffffffffffffffffffffffff1673ffffffffffffffffffffffffffffffffffffffff168152602001908152602001600020819055508273ffffffffffffffffffffffffffffffffffffffff16600073ffffffffffffffffffffffffffffffffffffffff167fddf252ad1be2c89b69c2b068fc378daa952ba7f163c4a11628f55a4df523b3ef846040518082815260200191505060405180910390a36001905092915050565b6000600360009054906101000a900460ff16156118b957600080fd5b60011515600160003373ffffffffffffffffffffffffffffffffffffffff1673ffffffffffffffffffffffffffffffffffffffff16815260200190815260200160002060009054906101000a900460ff1615151461191657600080fd5b81600760003373ffffffffffffffffffffffffffffffffffffffff1673ffffffffffffffffffffffffffffffffffffffff16815260200190815260200160002054101561196257600080fd5b81600760003373ffffffffffffffffffffffffffffffffffffffff1673ffffffffffffffffffffffffffffffffffffffff16815260200190815260200160002060008282540392505081905550816009600082825403925050819055507fcc16f5dbb4873280815c1ee09dbd06736cffcc184412cf7a71a0fdb75d397ca53383604051808373ffffffffffffffffffffffffffffffffffffffff1673ffffffffffffffffffffffffffffffffffffffff1681526020018281526020019250505060405180910390a160019050919050565b6060600060ff168260ff161415611a81576040518060400160405280600781526020017f53554343455353000000000000000000000000000000000000000000000000008152509050611aad565b600160ff168260ff161415611aac576040518060600160405280602b815260200161235e602b913990505b5b919050565b6000809054906101000a900473ffffffffffffffffffffffffffffffffffffffff1673ffffffffffffffffffffffffffffffffffffffff163373ffffffffffffffffffffffffffffffffffffffff1614611b0b57600080fd5b600073ffffffffffffffffffffffffffffffffffffffff168173ffffffffffffffffffffffffffffffffffffffff1614158015611b925750600160008273ffffffffffffffffffffffffffffffffffffffff1673ffffffffffffffffffffffffffffffffffffffff16815260200190815260200160002060009054906101000a900460ff16155b611b9b57600080fd5b60018060008373ffffffffffffffffffffffffffffffffffffffff1673ffffffffffffffffffffffffffffffffffffffff16815260200190815260200160002060006101000a81548160ff02191690831515021790555050565b6000600760008373ffffffffffffffffffffffffffffffffffffffff1673ffffffffffffffffffffffffffffffffffffffff168152602001908152602001600020549050919050565b60011515600160003373ffffffffffffffffffffffffffffffffffffffff1673ffffffffffffffffffffffffffffffffffffffff16815260200190815260200160002060009054906101000a900460ff16151514611c9b57600080fd5b600360009054906101000a900460ff1615611cb557600080fd5b6001600360006101000a81548160ff0219169083151502179055507f507601cb28731d1f402d3760797e1a1b121a6b956be4fef723175be45cce566333604051808273ffffffffffffffffffffffffffffffffffffffff1673ffffffffffffffffffffffffffffffffffffffff16815260200191505060405180910390a1565b6000809054906101000a900473ffffffffffffffffffffffffffffffffffffffff1681565b6000611d6582612063565b611d725760019050611d77565b600090505b919050565b60003383836000611d8c83611d5a565b9050600060ff168160ff1614611da182611a33565b90611e47576040517f08c379a00000000000000000000000000000000000000000000000000000000081526004018080602001828103825283818151815260200191508051906020019080838360005b83811015611e0c578082015181840152602081019050611df1565b50505050905090810190601f168015611e395780820380516001836020036101000a031916815260200191505b509250505060405180910390fd5b50600360009054906101000a900460ff1615611e6257600080fd5b600073ffffffffffffffffffffffffffffffffffffffff168773ffffffffffffffffffffffffffffffffffffffff1614158015611edd575085600760003373ffffffffffffffffffffffffffffffffffffffff1673ffffffffffffffffffffffffffffffffffffffff16815260200190815260200160002054115b611ee657600080fd5b85600760003373ffffffffffffffffffffffffffffffffffffffff1673ffffffffffffffffffffffffffffffffffffffff1681526020019081526020016000205403600760003373ffffffffffffffffffffffffffffffffffffffff1673ffffffffffffffffffffffffffffffffffffffff1681526020019081526020016000208190555085600760008973ffffffffffffffffffffffffffffffffffffffff1673ffffffffffffffffffffffffffffffffffffffff1681526020019081526020016000205401600760008973ffffffffffffffffffffffffffffffffffffffff1673ffffffffffffffffffffffffffffffffffffffff168152602001908152602001600020819055508673ffffffffffffffffffffffffffffffffffffffff163373ffffffffffffffffffffffffffffffffffffffff167fddf252ad1be2c89b69c2b068fc378daa952ba7f163c4a11628f55a4df523b3ef886040518082815260200191505060405180910390a3600194505050505092915050565b6000600260008373ffffffffffffffffffffffffffffffffffffffff1673ffffffffffffffffffffffffffffffffffffffff16815260200190815260200160002060009054906101000a900460ff169050919050565b6000600860008473ffffffffffffffffffffffffffffffffffffffff1673ffffffffffffffffffffffffffffffffffffffff16815260200190815260200160002060008373ffffffffffffffffffffffffffffffffffffffff1673ffffffffffffffffffffffffffffffffffffffff16815260200190815260200160002054905092915050565b6040518060400160405280600781526020017f535543434553530000000000000000000000000000000000000000000000000081525081565b6000809054906101000a900473ffffffffffffffffffffffffffffffffffffffff1673ffffffffffffffffffffffffffffffffffffffff163373ffffffffffffffffffffffffffffffffffffffff16146121d257600080fd5b806000806101000a81548173ffffffffffffffffffffffffffffffffffffffff021916908373ffffffffffffffffffffffffffffffffffffffff16021790555050565b60011515600160003373ffffffffffffffffffffffffffffffffffffffff1673ffffffffffffffffffffffffffffffffffffffff16815260200190815260200160002060009054906101000a900460ff1615151461227257600080fd5b600073ffffffffffffffffffffffffffffffffffffffff168173ffffffffffffffffffffffffffffffffffffffff16141580156122f95750600260008273ffffffffffffffffffffffffffffffffffffffff1673ffffffffffffffffffffffffffffffffffffffff16815260200190815260200160002060009054906101000a900460ff16155b61230257600080fd5b6001600260008373ffffffffffffffffffffffffffffffffffffffff1673ffffffffffffffffffffffffffffffffffffffff16815260200190815260200160002060006101000a81548160ff0219169083151502179055505056fe494c4c4547414c5f5452414e534645525f544f5f4e4f4e5f57484954454c49535445445f41444452455353a165627a7a72305820a92a22b694d1ab8536986838bf1200bc005662675c64c006ad2e49349803edaa0029",
  "source": "pragma solidity ^0.5.2;\n\n/**\n * define owner, transfer owner and assign admin\n */\ncontract owned {\n    address public owner;\n    mapping(address => bool) admins;\n    constructor () internal {\n        owner = msg.sender;\n        admins[msg.sender] = true;\n    }\n    modifier onlyOwner {\n        require(msg.sender == owner);\n        _;\n    }\n    modifier onlyAdmin() {\n        require(admins[msg.sender] == true);\n        _;\n    }\n    function transferOwnership(address newOwner) onlyOwner public {\n        owner = newOwner;\n    }\n    function isAdmin(address account) onlyOwner public view returns (bool) {\n        return admins[account];\n    }\n    function addAdmin(address account) onlyOwner public {\n        require(account != address(0) && !admins[account]);\n        admins[account] = true;\n    }\n    function removeAdmin(address account) onlyOwner public {\n        require(account != address(0) && !admins[account]);\n        admins[account] = true;\n    }\n}\n/**\n * manage whitelsit\n */\ncontract Whitelist is owned {\n    mapping(address => bool) whitelist;\n    function addWhitelist(address account) onlyAdmin public{\n        require(account != address(0) && !whitelist[account]);\n        whitelist[account] = true;\n    }\n    function isWhitelist(address account) public view returns (bool) {\n        return whitelist[account];\n    }\n    function removeWhitelisted(address account) public onlyAdmin {\n        require(account != address(0) && whitelist[account]);\n        whitelist[account] = false;\n    }\n}\n/**\n * make contract function pausable\n */\ncontract Pausable is owned {\n    event PausedEvt(address account);\n    event UnpausedEvt(address account);\n    bool private paused;\n    constructor () internal {\n        paused = false;\n    }\n    modifier whenNotPaused() {\n        require(!paused);\n        _;\n    }\n    modifier whenPaused() {\n        require(paused);\n        _;\n    }\n    function pause() public onlyAdmin whenNotPaused {\n        paused = true;\n        emit PausedEvt(msg.sender);\n    }\n    function unpause() public onlyAdmin whenPaused {\n        paused = false;\n        emit UnpausedEvt(msg.sender);\n    }\n}\n/**\n *Interface for ERC20\n */\ninterface ERC20 {\n    function transfer(address to, uint256 value) external returns (bool);\n\n    function approve(address spender, uint256 value) external returns (bool);\n\n    function transferFrom(address from, address to, uint256 value) external returns (bool);\n\n    function totalSupply() external view returns (uint256);\n\n    function balanceOf(address who) external view returns (uint256);\n\n    function allowance(address owner, address spender) external view returns (uint256);\n\n    event Transfer(address indexed from, address indexed to, uint256 value);\n\n    event Approval(address indexed owner, address indexed spender, uint256 value);\n}\ncontract MooToken is ERC20, Whitelist, Pausable {\n    TokenSummary public tokenSummary;\n    mapping(address => uint256) internal balances;\n    mapping (address => mapping (address => uint256)) internal allowed;\n    uint256 internal _totalSupply;\n    uint8 public constant SUCCESS_CODE = 0;\n    string public constant SUCCESS_MESSAGE = \"SUCCESS\";\n    uint8 public constant NON_WHITELIST_CODE = 1;\n    string public constant NON_WHITELIST_ERROR = \"ILLEGAL_TRANSFER_TO_NON_WHITELISTED_ADDRESS\";\n    event Transfer(address indexed from, address indexed to, uint256 value);\n    event Approval(address indexed owner, address indexed spender, uint256 value);\n    event Burn(address from, uint256 value);\n    struct TokenSummary {\n        address initialAccount;\n        string name;\n        string symbol;\n    }\n    constructor(string memory _name, string memory  _symbol,\n        address initialAccount, uint initialBalance) public payable {\n        addWhitelist(initialAccount);\n        balances[initialAccount] = initialBalance;\n        _totalSupply = initialBalance;\n        tokenSummary = TokenSummary(initialAccount, _name, _symbol);\n    }\n    modifier verify (address from, address to, uint256 value) {\n        uint8 restrictionCode = validateTransferRestricted(to);\n        require(restrictionCode == SUCCESS_CODE, messageHandler(restrictionCode));\n        _;\n    }\n    function validateTransferRestricted (address to) public view returns (uint8 restrictionCode) {\n        if (!isWhitelist(to)) {\n            restrictionCode = NON_WHITELIST_CODE;\n        } else {\n            restrictionCode = SUCCESS_CODE;\n        }\n    }\n    function messageHandler (uint8 restrictionCode) public pure returns (string memory message) {\n        if (restrictionCode == SUCCESS_CODE) {\n            message = SUCCESS_MESSAGE;\n        } else if(restrictionCode == NON_WHITELIST_CODE) {\n            message = NON_WHITELIST_ERROR;\n        }\n    }\n    function totalSupply() public view returns (uint256) {\n        return _totalSupply;\n    }\n    function balanceOf(address account) public view returns (uint256) {\n        return balances[account];\n    }\n    function transfer (address to, uint256 value) public verify(msg.sender, to, value)\n    whenNotPaused  returns (bool success) {\n        require(to != address(0) && balances[msg.sender]> value);\n        balances[msg.sender] = balances[msg.sender] - value;\n        balances[to] = balances[to] + value;\n        emit Transfer(msg.sender, to, value);\n        return true;\n    }\n    function transferFrom(address from, address spender,uint256 value) public verify(from, spender, value) whenNotPaused returns (bool) {\n        require(spender != address(0) && value <= balances[from] && value <= allowed[from][msg.sender]);\n        balances[from] = balances[from] - value;\n        balances[spender] = balances[spender] + value;\n        allowed[from][msg.sender] = allowed[from][msg.sender] - value;\n        emit Transfer(from, spender, value);\n        return true;\n    }\n    function allowance(address owner,address spender) public view returns (uint256) {\n        return allowed[owner][spender];\n    }\n    function approve(address spender, uint256 value) public returns (bool) {\n        require(spender != address(0));\n        allowed[msg.sender][spender] = value;\n        emit Approval(msg.sender, spender, value);\n        return true;\n    }\n    function burn(uint256 value) public whenNotPaused onlyAdmin returns (bool success) {\n        require(balances[msg.sender] >= value);\n        balances[msg.sender] -= value;\n        _totalSupply -= value;\n        emit Burn(msg.sender, value);\n        return true;\n    }\n    function mint(address account, uint256 value) public whenNotPaused onlyAdmin returns (bool) {\n        require(account != address(0));\n        _totalSupply = _totalSupply += value;\n        balances[account] = balances[account] + value;\n        emit Transfer(address(0), account, value);\n        return true;\n    }\n    function ()  external payable {\n        revert();\n    }\n}\n",
  "sourcePath": "/Users/kwamebryan/Downloads/9781789954111_Code-2/Chapter06/MyERC20Token/contracts/MooToken.sol",
  "compiler": {
    "name": "solc",
    "version": "0.5.8+commit.23d335f2.Emscripten.clang"
  },
  "schemaVersion": "3.3.3",
  "updatedAt": "2021-06-04T03:01:11.568Z",
  "networkType": "ethereum",
  "devdoc": {
    "methods": {}
  },
  "userdoc": {
    "methods": {}
  }
}